:020000040800F2
:100000005002002005010008090100080B0100084A
:100010000D0100080F010008110100080000000098
:1000200000000000000000000000000013010008B4
:100030001501000800000000170100081901000860
:100040001B0100081B0100081B0100081B01000820
:100050001B0100081B0100081B0100081B01000810
:100060001B0100081B0100081B0100081B01000800
:100070001B0100081B0100081B0100081B010008F0
:100080001B0100081B0100081B0100081B010008E0
:100090001B0100081B0100081B0100081B010008D0
:1000A0001B0100081B0100081B0100081B010008C0
:1000B0001B0100081B0100081B0100081B010008B0
:1000C0001B0100081B0100081B0100081B010008A0
:1000D0001B0100087B0500081B0100081B0100082C
:1000E0001B0100081B0100081B010008DFF80CD0F1
:1000F00000F064FC00480047210100085002002085
:1001000030BF000005480047FEE7FEE7FEE7FEE7D8
:10011000FEE7FEE7FEE7FEE7FEE7FEE7ED0000088C
:100120000024092000F0B7F9482000F045F84FF40A
:100130001651482000F05BFA00F0E0FA16A000F03B
:100140004FFC4FF47A7000F04DF813A000F048FC1B
:100150004FF47A7000F046F80FA000F041FC4FF425
:100160007A7000F03FF80EA000F03AFC00BF08E003
:1001700000200E4908604FF47A7000F033F8601CDC
:1001800084B23C2CF4DB0AA000F02AFC4FF0010002
:100190000649086000BFFEE76174690D00000000B9
:1001A00041544431303038363B0D0000A00121422B
:1001B0004154480D000000004FF0E021096921F092
:1001C00004014FF0E0221161C21700EB5272D2100D
:1001D0001F4B1A70194609784FF47A7251431D4A21
:1001E0001180704701461B4A12884A434FF0E023B2
:1001F0005A6100229A6101221A6100BF4FF0E02289
:10020000106910F0010F02D010F4803FF6D00022E8
:100210004FF0E0231A619A61704701460C4A127848
:100220004A434FF0E0235A6100229A6101221A6189
:1002300000BF4FF0E022106910F0010F02D010F45F
:10024000803FF6D000224FF0E0231A619A61704798
:100250000000002002000020AF4A0A400243AF4BDA
:100260001A6070470146072323EA01021202AC4BD1
:1002700018684FF6FF0300EA0300AA4B40EA0300A8
:1002800040EA02004FF0E023C3F80C0D70472DE95F
:10029000F0478046894614461D462046E11704EB88
:1002A00091714FEAA10AE11704EB91718910A4EB57
:1002B0008101CFB2042000EBC700C7B22846FFF788
:1002C000D1FFC5F1040008FA00F60F20284100EA2A
:1002D0000900064306F00F06202C0CDA924800684D
:1002E0004FF0010101FA04F140EA01004FF0E02172
:1002F000C1F800010DE08D480068A4F120014FF025
:10030000010202FA01F240EA02004FF0E021C1F8D6
:100310000401874850F82A0006FA07F10843844987
:1003200041F82A00BDE8F08770B504460B46CE17A9
:1003300001EB9676B010CE1701EB9676B610A1EBD6
:100340008606B606350E7B4B9B6943F00103794E5A
:10035000B3614FEAB63353F820300F26AE40B343B3
:10036000754E46F82030334653F8203004FA05F62F
:100370003343714E46F82030704B1E684FF0010336
:1003800003FA01F346EA03066D4BC3F8006412F06A
:10039000010F0AD06B4B1B684FF0010606FA01F6FD
:1003A00043EA0603664EC6F80C3412F0020F0AD078
:1003B000654B1B684FF0010606FA01F643EA060397
:1003C0005F4EC6F8083470BD00B500205949086179
:1003D000C8601420486100208861C8610846006830
:1003E00040F00100086008464068584908405149FB
:1003F000486008460068564908404E49086008466B
:10040000006820F4802008600846406820F4FE0060
:1004100048600020886000214FF00060FFF71CFF5B
:1004200000BD10B54B48006840F004004FF0E021DB
:10043000C1F8100D3F48C06940F080503D49C86187
:100440004548406840F48070434948600846006869
:1004500040F0040008600846006840F002000860B0
:10046000FFF74EFE10BD2F48001D2D490860704754
:10047000014649062F4A926942F001022D4B9A61CA
:100480002F4A526822F0E0622D4B5A601A46526899
:100490000A435A60704730B504460025FFF794FFC1
:1004A0002448006840F480302249086000BF214899
:1004B0000068400CFBD04FF480601E494860A01ECD
:1004C000C4B20846406840EA844048600846406834
:1004D00040F4803048602148006840F032001F49F5
:1004E00008601448006840F080701249086000BF3E
:1004F00010480068400EFBD00E48406840F00200F3
:100500000C49486005E00B484068C0F3870505F0DA
:100510000305022DF7D130BD80FFFF1F08ED00E07D
:100520000CED00E00000FA0500E100E004E100E06D
:1005300000E400E000100240080001400004014017
:10054000000001400C040140080401400000FFF8D5
:10055000FFFFF6FE10ED00E00070004000200240BA
:10056000014600BF704700BF5A4A128812F0400F80
:10057000FAD0C2B2584B1A8070475649098811F018
:10058000200F33D054490988C8B25449097811F072
:10059000800F2BD15149097811F0400F0CD00A2857
:1005A00003D000214D4A117020E04C49097841F0F8
:1005B00080014A4A117019E00D2806D1474909788F
:1005C00041F04001454A117010E04449097801F0BA
:1005D0003F01434A505441490978491C3F4A117030
:1005E000114609783F2901DD0021117070472DE97E
:1005F000F05F05460E46300100F08EF9814639491C
:1006000005FB01F000F088F98246494600F044F904
:100610000746384600F085F984B2204600F07CF9A0
:100620008346394600F0FFF882464FF0834100F0E0
:10063000FDF8814600F075F98046240104EB0800BE
:1006400084B22948806940F004002749886108463F
:10065000806940F4804088612448006820F47F600D
:100660002349C1F804080846D0F8040840F40B6098
:10067000C1F804081C48C06840F480401A49C860AA
:100680000846C06820F48040C8601A48A0F80848AE
:100690001948008842F20C0140EA01001549A1F80E
:1006A0000C080846B0F80C0840F48070A1F80C085B
:1006B0000846B0F80C0840F020000F4908804FF0C1
:1006C00002034FF025024FF003010846FFF7DFFD5C
:1006D000BDE8F09F003801400438014004000020CC
:1006E0000C00002040420F000010024004080140AE
:1006F00000000140003001400C3801401B48806977
:1007000040F00400194988610846806940F02000E3
:1007100088611748006820F00F001649C1F80408E6
:100720000846D0F8040840F00300C1F80408084661
:10073000D0F80C0840F48070C1F80C080E48D0F8CE
:10074000000420F470600C49C1F800040846D0F899
:10075000000440F44070C1F800040846D0F80C04CE
:1007600040F00400C1F80C04704700000010024083
:10077000040801400000014000100140F0B480EA8C
:100780000102D20F4300B3EB410F02D203460846E9
:1007900019464B0042D0C30DDDB2C1F3C7542C1B28
:1007A000202C35DAC1F3160141F4000502B16D4287
:1007B000C4F1200605FA06F125412844B3EBD05FC9
:1007C00023D0C2B1012CA0EBC35009DCF0BC4FF028
:1007D000004202EAC35200F50000DBB200F0BEB8EE
:1007E000400000F1807000EBC350A0F1807040EA3F
:1007F000D170490009E0490841EAC071A0EBC3503B
:1008000000F50000400800EBC350F0BC00F09DB8BC
:100810005142012303EB4101801AF6E7F0BC704717
:1008200081F00041AAE780F00040A7E780EA0102DA
:1008300010B502F00042400026D04B0023D04FEA12
:10084000106101EB1361C0F35600C3F3560340F48B
:10085000000043F40003A0FB0330A1F17F014FEA45
:1008600000401C0401D000F1010050EA134001D403
:100870004000491EC3B20C0604EBD010401C4008D7
:10088000802B02D003E0002010BD20F001000029E1
:1008900000DA0020104310BD80EA010202F000439C
:1008A00030B430F0004221F0004015D0A0B1C0F3C8
:1008B000C755C2F3C754C2F31601C0F31600651B37
:1008C00041F4000140F400007D35814201D36D1CEC
:1008D00000E04900002D02DA30BC002070474FF4E0
:1008E00000020024814201D3091A144352084FEA3E
:1008F0004101F7D151B1814202D14FF0004105E0F1
:1009000002D24FF0010101E06FF0010104EBC5508C
:1009100030BC184400F019B896230022114600F0AC
:100920001DB820F00040C10DC0F3160040F40000D7
:100930007F2901DA00207047962903DCC1F1960176
:10094000C84070479639884070470029A8BF704753
:10095000401C490008BF20F00100704710B4B0FAF5
:1009600080FC00FA0CF050EA010404BF10BC704790
:1009700049B1CCF1200421FA04F411FA0CF118BFAA
:10098000012121430843A3EB0C01CB1D4FEA006179
:100990004FEA102048BF0020BCBF10BC704700EBDE
:1009A000C35010440029A4BF10BC7047401C49002C
:1009B00008BF20F0010010BC70470000064C074D36
:1009C00006E0E06840F0010394E80700984710341F
:1009D000AC42F6D3FFF78EFB300A0008500A00083D
:1009E000014A024900F013B867050008080000201A
:1009F00002E008C8121F08C1002AFAD170477047E8
:100A0000002001E001C1121F002AFBD170472DE92F
:100A1000F04104460F461646002503E03946B0472C
:100A20006D1C641C20780028F8D12846BDE8F081B0
:100A3000500A0008000000200C000000F009000827
:100A40005C0A00080C00002044020000000A0008B4
:0C0A50000000000000000000000000009A
:04000005080000ED02
:00000001FF
