:1000260041540D004F4B0047534D206D6F64756C66
:1000360065206973204F4B0057696C6C20636F6EA7
:1000460074696D7565212020002020202020202045
:10005600202020202020202020004E6F2047534DB6
:1000660020636F6E6E65637465640041542B434D67
:1000760047463D310041542B434D47463D300053E2
:1000860065745F4D4F4445206973204F4B00636F85
:100096006E74696D7565212020005365745F4D4F40
:1000A6004445206661696C65640041542B435343A3
:1000B600413D005365745F43454E54455220697374
:1000C600204F4B0043454E54455220636F6E746972
:1000D6006D7565212020005365745F43454E544578
:1000E60052206661696C65640041542B434D475349
:1000F6003D003E001A0D005472616E736D697420E6
:10010600616C72656164790077616974205472610B
:100116006E736D6974212020002B383631383031EA
:1001260031343631303639004861726D66756C6728
:10013600617365730046697265005468656674008C
:0F0146002B3836313338303034353135303000E6
:0A042900C2B4C2B5D2B58F807F01C6
:0D043300EFD3940040077E78DEFE1F80F3BB
:010440002299
:0C04E500C2B3120429C2B5D2B4D2B322B3
:0C04F100D2B3120429C2B5D2B4C2B322A7
:0F04AA007F381204E57F0C1204E57F060204E59B
:10049800ED7006EF2480FC8004EF24C0FCAF04025A
:0204A80004E569
:10045900120498120003FF600C1204F1740129F9C7
:06046900E43AFA80EE22E5
:08051E00120498AF030204F17E
:1003D8007BFF7D011203E81204CD7A00794F7D017D
:1003E800ED14FDE4FF120498120003FF600C1204E0
:0B03F800F1740129F9E43AFA80EE22CA
:10046F00758920758DFD758BFDD28EC29FD29ED260
:06047F009CD2ACD2AF22BA
:0704B9007BFF1204857F2286
:0804C0008F993099FDC29922C9
:10048500120003FF600C1204C0740129F9E43AFA62
:0304950080EE22D4
:0D04D700EFD3940040077E78DEFE1F80F317
:0104E40022F5
:0605090012050F12050FA0
:05050F007F640204D727
:0504C8007D021203E8B3
:0904CD00E4FD12050F0DBD0AF952
:0104D6002203
:09051400E4FC1204CD0CBC0AF950
:01051D0022BB
:100441004390015390FE12050912050943800112E0
:08045100051412051402051444
:10038C0075530AAF531553EF6041E4F5207BFF7AA8
:10039C00007926120485D2AC12050F8B6112015D17
:1003AC00E94A601E7BFF7A00792D7D011203E87A01
:1003BC0000793E1204C81203DF7A00794F7D0202E5
:0B03CC0003E87A0079601203D880B8C3
:0103D7002203
:02033B008F53DE
:10033D0075540AAF541554EF6044E4F520E5537B32
:10034D00FF60067A00797180047A00797B1204854A
:10035D00120155E94A601E7BFF7A0079857D0112F5
:10036D0003E87A0079941204C81203DF7A00794FFA
:0E037D007D020203E87A0079A01203D880B551
:01038B00224F
:0602E2008B538A5489557C
:1002E80075560AAF561556EF6048E4F5207A00793E
:1002F800B01204B9AB53AA54A9551204BB7F0D120E
:1003080004C0120155E94A601E7BFF7A0079B97D65
:10031800011203E87A0079CA1204C81203DF7A00CE
:10032800794F7D020203E87BFF7A0079DD1203DA58
:0203380041EB97
:01033A0022A0
:0601EF007BFF7A01791F7D
:0601F5008B538A5489556A
:1001FB0075590A755A0A7A0079EF1204B9AB53AAEA
:10020B0054A9551204BB7F0D1204C0E4F520AF595D
:10021B001559EF606312050F7561FF756200756309
:10022B00F81201638B5B8A5C895DAE02AF01EF4E06
:10023B0060DCAB56AA57A958120485E4F5207BFF66
:10024B007A0079FA120485AF5A155AEF60C0120181
:10025B00578B5B8A5C895DAE02AF01EF4E600E7B04
:10026B00FF7A0079FD7D011203E87F01227BFF7A83
:0A027B0001790E1203DA80CF7F0034
:010285002256
:10015500D2AC12050F7561FF75620075632A7B00CD
:040165007A00792182
:060169008B5E8A5F8960D5
:10016F00AE02AF01EF4E6071E563456270028069C8
:10017F00855E64855F65856066AB64AA65A9661256
:10018F00000360558B678A68896985616A85626B30
:10019F0085636CAB67AA68A969120003FFAB6AAAF3
:1001AF006BA96C120003FEB507187401256CF56C72
:1001BF00E4356BF56B74012569F569E43568F5680D
:1001CF0080D1EE7007AB64AA65A96622740125661B
:0F01DF00F566E43565F56580A07B007A00790050
:0101EE0022EE
:03002300020403D1
:10040300C0E0C0D075D018C2AFE520C39432500FFE
:1004130030980CC298AF20052074212FF8A699D2EA
:06042300AFD0D0D0E032A2
:10028600C2A112046F1204AA12038C7F0112033B4F
:100296007BFF7A0179461202E220A714C2A4C2A209
:1002A6007556FF75570175582E1201EFD2A180FEC3
:1002B60020A314C2A6C2A27556FF75570175583BF6
:1002C6001201EFD2A180FE20A0CFC2A5C2A2755610
:0C02D600FF7557017558401201EF80FEC3
:030000000204FDFA
:0C04FD00787FE4F6D8FD75816C02028661
:10000300BB010689828A83E0225002E722BBFE02FB
:09001300E32289828A83E493222E
:00000001FF
