:030000000208F7FC
:0C08F700787FE4F6D8FD75817B02093E95
:10038C0047534D20535441525421202020202020EB
:10039C000047534D205354415254212120202020FA
:1003AC00200047534D2053544152542121212020E9
:1003BC0020200041544530204F4B2120202020206C
:1003CC002020200054455854204D4F4445204F4B7D
:1003DC0021202020004E455420434F4E4E4543547F
:1003EC00204F4B2120004E455420434F4E4E454349
:1003FC0054494E4721200043454E544552204E55FA
:10040C004D204F4B2120200050484F4E45204E553B
:10041C004D204F4B212020200047534D2053454E5B
:10042C0044204F4B212020202000C4A3BFE9C6F458
:10043C00B6AFD6D021202020202000C4A3BFE9C60F
:10044C00F4B6AFD6D021212020202000C4A3BFE9D0
:10045C00C6F4B6AFCDEAB1CF2121212000C4A3BF91
:10046C00E9C6F4B6AFB3C9B9A62120202000C9E86B
:10047C00D6C3CEC4B1BEC4A3CABD2120202000CD9A
:10048C00F8C2E7C1ACBDD3B3C9B9A6212020200066
:10049C00CDF8C2E7C1ACBDD3D6D0A1A3A1A3A1A373
:1004AC0000D6D0D0C4BAC5C9E8D6C3CDEAB3C921E9
:1004BC002000D6D0D0C4BAC5C9E8D6C3D6D0A1A323
:1004CC00A1A300C4BFB1EABAC5C2EBCDEAB3C9213E
:1004DC0020202000B6CCD0C5B7A2CBCDB3C9B9A6CD
:1004EC00212020200047505253C6F4B6AF212020C3
:1004FC00202020202000B3A1BEB0C9E8D6C3212003
:10050C0020202020202000B6CBBFDAC9E8D6C3219A
:10051C002020202020202000B1BEBBFA4950C9E881
:10052C00D6C321202020202000B1BEBBFA4950B2F6
:10053C00E9D1AF21202020202000BDE2CEF6D3F25D
:10054C00C3FB212020202020202000B6CCD0C5B712
:10055C00A2CBCDB3C9B9A6212020200047505253BD
:10056C002053544152542120202020200047505227
:10057C0053205245535441525421202020004143D2
:10058C0054204F4B212020202020202020200041CF
:10059C004354205245534554212020202020200034
:1005AC00434F4D204F4B2120202020202020202065
:1005BC000049502053455421202020202020202069
:1005CC002000495020464F554E4421202020202009
:1005DC0020200049502053454152434821202020DF
:1005EC002020200047505253204F4B212020202008
:1005FC00202020200047505253204552524F522168
:10060C00202020202000415426460D0A004154454C
:10061C00300D0A00415445310D0A0041542B435210
:10062C0045473F0D0A0041542B435354540D0A00C7
:10063C0041542B43494943520D0A0041542B434C1E
:10064C00504F52543D00544350003230323200412E
:10065C00542B43494653520D0A0041542B434950E5
:10066C005354415455530D0A0041542B43444E539B
:10067C004749500D0A0041542B43495053544152A1
:10068C00543D005443500036302E32352E38392E1E
:10069C003130370031323334350041542B4349501B
:0706AC0053454E440D0A0006
:100D4100102154494D453A30303A30303A30302054
:100D51002020103154454D503A3030302E30432050
:040D6100202020200E
:0A0FDC00EF1F70011E144E70F72283
:060BCE00C296C294D2960B
:020BD400AD076B
:100BD600E4FCED30E004D2958002C2957F0A7E00E7
:100BE600120FDCD2947F0A7E00120FDCC294EDC392
:060BF60013FD0CBC08DC3D
:010BFC0022D6
:0F0F9500AB05120BCEAF03120BD4D294C296222F
:100D6600E4FDFC309505430480800353047FECC307
:100D760013FCD2947F027E00120FDCC2940DBD07D5
:030D8600E2AF04D5
:010D89002247
:0A0FB000120BCE120D66D294C29609
:010FBA002214
:100B5700E4FD7F8E120F957D097F8C120F957D0422
:100B67007F88120F957D067F86120F957D017F8AFC
:100B7700120F957D017F84120F957D027F82120FE0
:0F0B8700957D207F80120F957D807F8E020F95C8
:0B0FBB00EF1FAC0670011E4C70F62208
:100D1C00D2907F087E00120FBBC2907F507E0012D3
:100D2C000FBBD2907F0E7E00120FBB7F147E001281
:050D3C000FBBD2902264
:100DF000E4FB7D08C290EBC313FBD2903090034319
:0F0E000003807F047E00120FBBDDE9AF037E008D
:010E0F0022C0
:080C8000120C88120D1C7FCC40
:020C8800AD07B6
:100C8A007B08C290ED1392907F057E00120FBBD2B3
:0E0C9A0090EDC313FDDBEB7F047E00020FBB69
:100DCF00120C837F4E120C887F55120C88E4FF1291
:100DDF000C887F7F120C807F48120C807FB8020C2A
:010DEF00887B
:10098300E4FAFDFCF50BF50AF509F508F582F583A4
:10099300C2AF7F04FE120FBB120DCF120C837F4434
:1009A300120C887F507E00120FBB120C837FBE1285
:1009B3000C88120DF0AA07120DF0D290D2AFAD073A
:1009C300EDFCAF02EFFDAE04E4120229E4FBFA7979
:1009D30080783D12011E8F0B8E0A8D098C08E4FF6F
:1009E300FE7D207C41AB0BAA0AA909A80812011EAF
:1009F300E4FBFAF9783F12002D1202628E838F8294
:010A030022D0
:0B0FC600EF1FAC0670011E4C70F622FD
:100E8400AB07AA06EB1BAE0270011A4E60097F95F0
:080E94007E00120FC680ED2262
:0B0DAD007F057E00120E84E4FD7F38FD
:100DB8008F15ED6003120E4D851580C2B2C2B3D2F5
:070DC800B4000000C2B422D8
:10000E008F15120E4D851580D2B2C2B3D2B4000038
:04001E0000C2B42246
:100E4D007580FFD2B4C2B2D2B300E58030E70AC2DA
:0C0E5D00B40000D2B4000080F1C2B42246
:090B1500C2AF7F327E00120E8493
:100B1E00E4F5807F0FFE120DB1120DAD120DAD7FFB
:100B2E00057E00120E847D017F38120DB87D017F87
:100B3E0008120DB87D017F01120DB87D017F0612DE
:090B4E000DB87D017F0C020DB809
:100E69008B1453050153070FED60034307404307F4
:0B0E790080E4FD120DB8AF1402000E63
:0A0B96008F0E8D0F8B108A1189124B
:100BA000E4F513530F01530E0FE50EC39410501DBF
:100BB000AB10AA11A9128513827583001202FCFBE7
:0D0BC000AD0FAF0E120E690513050E80DC9F
:010BCD002205
:060C2C007B007A00792133
:100C32008B088A09890A120B15AB08AA09A90AE4CA
:100C4200FDFF120B96AB0BAA0CA90D7D01E4FF125E
:050C52000B96D2AF2259
:100E9C008B768A778978120B15AB76AA77A978E4CA
:080EAC00FDFF120B96D2AF22EC
:100E1000E4FDFCC3ED9FEC9E5015E4FBFA0BBB0018
:0F0E2000010AEB646E4A70F50DBD00010C80E411
:010E2F0022A0
:0C0FA400D2B3C2B2D2B4E58020E3FB223D
:100EB400A907120FA47F0A7E00120E10C2B2C2B399
:070EC4008980D2B4C2B42200
:100ECB00A9077F017E00120E10D2B2C2B38980D265
:040EDB00B4C2B422C7
:100E3000D2B7D2B57F30120EB47F0C120EB47F0140
:0D0E4000120EB47F02120EB47F80020EB4B9
:100BFD00ED14600C1460101460142403701780152C
:100C0D00EF2490F5168013EF2488F516800CEF2451
:0F0C1D0098F5168005EF2480F516AF16020EB479
:100D8A008B798A7A897BAB79AA7AA97B1202E3FFEB
:100D9A006010120ECB7401257BF57BE4357AF57A67
:030DAA0080E422C0
:100CD0008F6D8D6E8B6F8A708971C2AF7F017E00C0
:100CE000120E10AD6EAF6D120BFDAB6FAA70A97135
:060CF000120D8AD2AF22B2
:060C57008B728A738974A0
:100C5D00120BFDE4F575AB72AA73A97485758275D7
:100C6D0083001202FCFF120ECB0575E575C39402CD
:020C7D0040E451
:010C7F002252
:050003007F01020EB4B4
:100F6500758921758CD8758AF0D2AFD2A9D28C2219
:03000B00020FE6FB
:090FE600758CD8758AF0054A32B9
:100850001209838E448F457F81120FB08F4C7F83A6
:10086000120FB08F4D7F85120FB08F4EE54EC454DE
:100870000F2430F526E54E540F2430F527E54DC4FE
:10088000540F2430F529E54D540F2430F52AE54C5A
:10089000C4540F2430F52CE54C540F2430F52DE5CD
:1008A00045540AFFC3E5459FFFE5449400FE7C00E4
:1008B0007D0A1203298F4BE54B75F064842430F5D3
:1008C00036E54B75F00A842430F537E54B75F00AB0
:1008D00084E5F02430F538AE44AF457C007D0A1243
:1008E0000329ED2430F53AE4F54AF50B750C007553
:0708F0000D31FB120C2E225A
:060CF600E4F5467F64FEF8
:100CFC00E4FDFCC3ED9FEC9E5015E4FBFA0BBB002E
:0F0D0C00010AEB64644A70F50DBD00010C80E430
:010D1B0022B5
:100EDF00759850438921438780758DFD43A890D223
:040EEF008ED29922E4
:030FD100EE93FF9D
:080FD4003099FD8F99C29922AA
:03002300020CA824
:100CA800C0E0C0D075D018309819C298859943AF64
:100CB800490549744F2FF8A643E549D395474003A2
:080CC800854947D0D0D0E0328D
:0F0F7500E4FE900627120FD10EBE0AF675460451
:010F8400224A
:0F0F8500E4FE900619120FD10EBE06F675460156
:010F9400223A
:100EF300E4FEEE90063293FF120FD40EBE09F37593
:020F0300461294
:010F050022C9
:100F0600E4FEEE90063C93FF120FD40EBE0AF37574
:020F1600461380
:010F180022B6
:100A7600E4FEEE90064793FF120FD40EBE0AF37FF4
:100A860022120FD4E4FEEE90065293FF120FD40EFC
:100A9600BE03F37F22120FD47F2C120FD47F2212B3
:100AA6000FD4E4FEEE90065693FF120FD40EBE044A
:100AB600F37F22120FD47F0D120FD47F0A120FD4A8
:030AC6007546145E
:010AC900220A
:100F1900E4FEEE90065B93FF120FD40EBE0AF37542
:020F290046156B
:010F2B0022A3
:100F2C00E4FEEE90066693FF120FD40EBE0EF37520
:020F3C00461657
:010F3E002290
:100F3F00E4FEEE90067593FF120FD40EBE0CF37500
:020F4F00461743
:010F5100227D
:100A0400E4FEEE90068293FF120FD40EBE0CF37F29
:100A140022120FD4E4FEEE90068F93FF120FD40E31
:100A2400BE03F37F22120FD47F2C120FD47F221225
:100A34000FD4E4FEEE90069393FF120FD40EBE0C77
:100A4400F37F22120FD47F2C120FD47F22120FD4E3
:100A5400E4FEEE9006A093FF120FD40EBE05F37FC2
:100A640022120FD47F0D120FD47F0A120FD47546B1
:010A74001869
:010A7500225E
:100ACA00E4FEEE9006A693FF120FD40EBE0CF37F3F
:100ADA00647E00120CFC74312EF8E6FF120FD40E5D
:100AEA00BE0FF37F0D120FD47F0A120FD4E4FE74E7
:100AFA00212EF8E6FF120FD40EBE0FF37F1A120F43
:0B0B0A00D47F0D120FD47F0A020FD41D
:1006B3007F0A7E00120CFCE547D394005003020826
:1006C3004FE5466401702EE551B44F1CE552B44B1F
:1006D30017750BFF750C03750DBF120C2CE4F54653
:1006E3007F0AFE120CFC80497F0A7E00120CFC126A
:1006F3000F85020839E5466404703CE558B43006BA
:10070300E55A6431600AE558B4301AE55AB4351530
:10071300750BFF750C03750DE1120C2CE4F54612F5
:100723000EF3020839750BFF750C03750DF2120CED
:100733002C120F75020839E546641270277F0AFEF2
:10074300120CFCE551B44F16E552B44B11750BFF77
:10075300750C05750D68120C2C120CF68000120F27
:1007630006020839E546641370307F0AFE120CFC5A
:10077300E551B44F10E552B44B0B750BFF750C05E7
:10078300750D8A8009750BFF750C05750D9B120C91
:100793002C120CF6120A76020839E5466414702E00
:1007A3007F0AFE120CFCE551644F6003020839E531
:1007B30052644B6003020839750BFF750C05750D08
:1007C300ACFB120C2E120CF6120F19020839E54677
:1007D300B4151B7F647E00120CFC750BFF750C05B2
:1007E300750DCE120C2C120CF6120A048048E54645
:1007F300641870427F2C7E01120CFC750BFF750C84
:1008030005750DF0120C2C120CF61208507FF47EB5
:1008130001120CFC120ACA7F647E00120CFCE4F580
:1008230048744F2548F8E4F60548E548B41EF2E459
:10083300F549F54780D4E4F548744F2548F8E4F6C4
:0D0843000548E548B41EF2E4F549F54722EA
:100F5200C291120EDF120B57120E30120F851206BB
:030F6200B380FB5E
:100026000202CEE86480F8E933E83360110460F038
:10003600ED33EC337009E8FCE9FDEAFEEBFF220440
:1000460060DED3EB9FEA9EE99DE8C2E78CF0C2F73B
:1000560095F0400CE8CCF8E9CDF9EACEFAEBCFFB07
:1000660012029985D0F05804700320D5B3E80470C5
:10007600075002B2D50202D892D5EC0460F7E4CC60
:10008600C0E0C398F8603B94186008400DD0E0FBD0
:100096000202B0E4FBFAC9FC8028E830E406E4C9B1
:1000A600FBE4CAFCE830E305E4C9CACBFCE8540724
:1000B6006010F8C3E913F9EA13FAEB13FBEC13FC2F
:1000C600D8F130F52FC3E49CFCEF9BFFEE9AFEEDD2
:1000D60099FDD0E0FBEF4E4D4C701222DB0302027D
:1000E600D5EC2CFCEF33FFEE33FEED33FDED30E7C0
:1000F600EB0202B0EF2BFFEE3AFEED39FDD0E0FB4E
:1001060050130BBB00030202D8ED13FDEE13FEEFF6
:0801160013FFEC13FC0202B020
:10011E00EC4D6011E8497017ED33EC3304600DE4DB
:10012E00FCFFFEFD22E933E8330470F80202CE1222
:10013E00029958046009E4CC248150062850090223
:10014E0002D82840030202D5C0E0EB4A7044B980C1
:10015E0006D0E0FB0202C4EF4E701CBD8008EBFF20
:10016E00EAFEE9FD80EBE98DF0A4FEE5F002020760
:10017E00E9CDF9EAFEEBFFEF89F0A4FCE5F0CE89BC
:10018E00F0A42EFFE435F0CD89F0A42DFEE435F079
:10019E008067EF4E7005BD80D780C3EF8BF0A4ACA7
:1001AE00F0EE8BF0A42CFCE435F0F8EF8AF0A42CE2
:1001BE00E5F038FCE433CB8DF0A42CFCE5F03BF8F5
:1001CE00EE8AF0A42CFCE5F038F8E433CF89F0A4E5
:1001DE002CFCE5F038CF3400CE89F0A42FFFE5F0EB
:1001EE003EFEE433C98DF0A42EFEE5F039CD8AF043
:1001FE00A42FFFE5F03EFEE43DFD33D0E0FB5007BB
:10020E000BBB000F0202D8EC2CFCEF33FFEE33FEDB
:06021E00ED33FD0202B009
:1002240075F020800E75F010800575F0087D007E55
:10023400007F003392D530D50312037EEC33401097
:10024400EF33FFEE33FEED33FDEC33FCD5F0ED225E
:0E025400E5F0247EA2D513CC92E7CDCEFF229A
:10026200EDD2E7CD33EC3392D524814006E4FFFE94
:10027200FDFC22FCE4CFCECDCC24E0501174FF80F3
:10028200EDC3CC13CCCD13CDCE13CECF13CF047090
:07029200F030D5DE02037E0F
:10029900E9D2E7C933E833F892D5EDD2E7CD33ECAB
:0702A90033FC5002B2D52224
:1002B000EC30E7100FBF000C0EBE00080DBD0004AF
:1002C0000BEB6014A2D5EB13FCED92E7FD2274FF5B
:1002D000FCFDFEFF22E480F8A2D574FF13FC7D80B4
:0302E000E480EFC8
:10090300020F52E493A3F8E493A34003F68001F2A9
:1009130008DFF48029E493A3F85407240CC8C333F5
:10092300C4540F4420C8834004F456800146F6DFC4
:10093300E4800B0102040810204080900D41E47E06
:10094300019360BCA3FF543F30E509541FFEE493B9
:10095300A360010ECF54C025E060A840B8E493A380
:10096300FAE493A3F8E493A3C8C582C8CAC583CAAB
:10097300F0A3C8C582C8CAC583CADFE9DEE780BE63
:010D6500008D
:1002E300BB010689828A83E0225002E722BBFE0219
:0902F300E32289828A83E493224C
:1002FC00BB010CE58229F582E5833AF583E02250B7
:10030C0006E92582F8E622BBFE06E92582F8E22200
:0D031C00E58229F582E5833AF583E493221A
:10032900BC000BBE0029EF8DF084FFADF022E4CCB8
:10033900F875F008EF2FFFEE33FEEC33FCEE9DEC81
:10034900984005FCEE9DFE0FD5F0E9E4CEFD22EDC7
:10035900F8F5F0EE8420D21CFEADF075F008EF2F11
:10036900FFED33FD4007985006D5F0F222C398FD02
:050379000FD5F0EA229F
:0E037E00C3E49FFFE49EFEE49DFDE49CFC2290
:00000001FF
