:1000260041540D004F4B0047534D206D6F64756C66
:1000360065206973204F4B0057696C6C20636F6EA7
:1000460074696D7565212020002020202020202045
:10005600202020202020202020004E6F2047534DB6
:1000660020636F6E6E65637465640041542B434D67
:1000760047463D310041542B434D47463D300053E2
:1000860065745F4D4F4445206973204F4B00636F85
:100096006E74696D7565212020005365745F4D4F40
:1000A6004445206661696C65640041542B435343A3
:1000B600413D005365745F43454E54455220697374
:1000C600204F4B0043454E54455220636F6E746972
:1000D6006D7565212020005365745F43454E544578
:1000E60052206661696C65640041542B434D475349
:1000F6003D003E001A0D005472616E736D697420E6
:10010600616C72656164790077616974205472610B
:100116006E736D6974212020002B383631383834DF
:10012600353134363736310049206C6F76652061BB
:1001360070706C65002B38363133383030343531D9
:040146003530300020
:0A03E700C2B4C2B5D2B58F807F0109
:0D03F100EFD3940040077E78DEFE1F80F3FE
:0103FE0022DC
:0C04A300C2B31203E7C2B5D2B4D2B32238
:0C04AF00D2B31203E7C2B5D2B4C2B3222C
:0F0468007F381204A37F0C1204A37F060204A3A3
:10045600ED7006EF2480FC8004EF24C0FCAF04029C
:0204660004A3ED
:10041700120456120003FF600C1204AF740129F98D
:06042700E43AFA80EE2227
:0804DC00120456AF030204AF45
:10036B007BFF7D0112037B12048B7A00794F7D0199
:10037B00ED14FDE4FF120456120003FF600C12048F
:0B038B00AF740129F9E43AFA80EE2279
:10042D00758920758DFD758BFDD28EC29FD29ED2A2
:06043D009CD2ACD2AF22FC
:070477007BFF1204437F220A
:08047E008F993099FDC299220B
:10044300120003FF600C12047E740129F9E43AFAE6
:0304530080EE2216
:0D049500EFD3940040077E78DEFE1F80F359
:0104A2002237
:0604C7001204CD1204CD69
:0504CD007F64020495AC
:050486007D0212037B62
:09048B00E4FD1204CD0DBD0AF9D7
:010494002245
:0904D200E4FC12048B0CBC0AF9D5
:0104DB0022FE
:1003FF004390015390FE1204C71204C743800112A9
:08040F0004D21204D20204D24F
:10031F0075530AAF531553EF6041E4F5207BFF7A15
:10032F00007926120443D2AC1204CD8B6112015214
:10033F00E94A601E7BFF7A00792D7D0112037B7ADB
:10034F0000793E1204861203727A00794F7D020201
:0B035F00037B7A00796012036B80B80A
:01036A002270
:0202CE008F534C
:1002D00075540AAF541554EF6044E4F520E5537BA0
:1002E000FF60067A00797180047A00797B120443FA
:1002F00012014AE94A601E7BFF7A0079857D01126E
:10030000037B7A0079941204861203727A00794F83
:0E0310007D0202037B7A0079A012036B80B598
:01031E0022BC
:060275008B538A548955E9
:10027B0075560AAF561556EF6048E4F5207A0079AB
:10028B00B0120477AB53AA54A9551204797F0D12FF
:10029B00047E12014AE94A601E7BFF7A0079B97D20
:1002AB000112037B7A0079CA1204861203727A0058
:1002BB00794F7D0202037B7BFF7A0079DD12036DA0
:0202CB00417E72
:0102CD00220E
:0601E4008B538A5489557B
:1001EA0075590A755A0A7A0079EF120477AB53AA3D
:1001FA0054A9551204797F0D12047EE4F520AF59F3
:10020A001559EF60631204CD7561FF75620075635D
:10021A00F81201588B5B8A5C895DAE02AF01EF4E22
:10022A0060DCAB56AA57A958120443E4F5207BFFB9
:10023A007A0079FA120443AF5A155AEF60C01201D4
:10024A004C8B5B8A5C895DAE02AF01EF4E600E7B20
:10025A00FF7A0079FD7D0112037B7F01227BFF7A01
:0A026A0001790E12036D80CF7F00B2
:010274002267
:10014A00D2AC1204CD7561FF75620075632A7B001B
:04015A007A0079218D
:06015E008B5E8A5F8960E0
:10016400AE02AF01EF4E6071E563456270028069D3
:10017400855E64855F65856066AB64AA65A9661261
:10018400000360558B678A68896985616A85626B3B
:1001940085636CAB67AA68A969120003FFAB6AAAFE
:1001A4006BA96C120003FEB507187401256CF56C7D
:1001B400E4356BF56B74012569F569E43568F56818
:1001C40080D1EE7007AB64AA65A966227401256626
:0F01D400F566E43565F56580A07B007A0079005B
:0101E30022F9
:030023000203C114
:1003C100C0E0C0D075D018C2AFE520C39432500F41
:1003D10030980CC298AF20052074212FF8A699D22D
:0603E100AFD0D0D0E032E5
:1003960012042D12046812031F7F011202CE7BFF86
:1003A6007A01793B1202757556FF75570175582EFD
:0B03B6007BFF7A01791F1201E480FE3A
:030000000204BB3C
:0C04BB00787FE4F6D8FD75816C02039692
:10000300BB010689828A83E0225002E722BBFE02FB
:09001300E32289828A83E493222E
:00000001FF
