:020000040800F2
:10000000683100208D01000891010008930100086B
:100010009501000897010008990100080000000000
:100020000000000000000000000000009B0100082C
:100030009D010008000000009F010008A1010008C8
:10004000A3010008A3010008A3010008A301000800
:10005000A3010008A3010008A3010008A3010008F0
:10006000A3010008A3010008A3010008A3010008E0
:10007000A3010008A3010008A3010008A3010008D0
:10008000A3010008A3010008A3010008A3010008C0
:10009000A3010008A3010008A3010008A3010008B0
:1000A000A3010008A3010008A3010008A3010008A0
:1000B000A3010008A3010008A3010008A301000890
:1000C000A3010008A3010008A3010008A301000880
:1000D000A301000819090008A3010008A3010008F2
:1000E000A3010008A3010008A301000800F002F822
:1000F00000F03CF80AA090E8000C82448344AAF186
:100100000107DA4501D100F031F8AFF2090EBAE883
:100110000F0013F0010F18BFFB1A43F0010318473B
:10012000980D0000B80D0000103A24BF78C878C1BF
:10013000FAD8520724BF30C830C144BF04680C60ED
:10014000704700000023002400250026103A28BF35
:1001500078C1FBD8520728BF30C148BF0B60704739
:100160001FB500F097FE1FBD10B510BD00F04AF896
:100170001146FFF7F5FF00F04FFD00F068F803B4FB
:10018000FFF7F2FF03BC00F073F8000008480047D7
:10019000FEE7FEE7FEE7FEE7FEE7FEE7FEE7FEE737
:1001A000FEE7FEE703480449024A044B704700009B
:1001B000ED000008682F002068310020682F002023
:1001C00010B5431C02E010F8011B71B18107FAD190
:1001D0004FF0013202C88C1A8C4314EAC211F9D0D4
:1001E000C01A0A0603D0C01E10BDC01A10BD0A04F2
:1001F00001D0801E10BD0902FCD0401E10BD70470A
:1002000070477047754600F029F8AE46050069460C
:10021000534620F00700854618B020B5FFF7C2FF0F
:10022000BDE820404FF000064FF000074FF00008F7
:100230004FF0000B21F00701AC46ACE8C009ACE878
:10024000C009ACE8C009ACE8C0098D467047044657
:10025000AFF300802046FFF792FF00000048704790
:10026000042F002001487047704700BF082F00206E
:1002700001491820ABBEFEE72600020070470021AE
:1002800008E0002201E0531C9AB2B2F57A7FFADB53
:100290004B1C99B28142F4DB7047000008B54FF463
:1002A0000070ADF8000003208DF8020018208DF8D2
:1002B00003006946194800F033F84FF48060ADF848
:1002C000000004208DF803006946144800F028F867
:1002D0000420ADF8000003208DF8020018208DF8EE
:1002E000030069460D4800F01BF80820ADF8000037
:1002F00028208DF803006946084800F011F8812095
:10030000ADF8000001208DF8020010208DF80300E8
:100310006946024800F004F808BD000000080140EA
:100320002DE9F0410246002500260020002300248C
:10033000002791F803C00CF00F0591F803C01CF0E2
:10034000100F03D091F802C04CEA0505B1F800C0C7
:100350001CF0FF0F31D0146800202AE04FF0010C90
:100360000CFA00F3B1F800C00CEA03069E421FD15C
:1003700083004FF00F0C0CFA03F7BC4305FA03FCA3
:100380004CEA040491F803C0BCF1280F05D14FF0EA
:10039000010C0CFA00FCC2F814C091F803C0BCF1C7
:1003A000480F05D14FF0010C0CFA00FCC2F810C048
:1003B000401C0828D2D314600024B1F800C0BCF15E
:1003C000FF0F34DD546800202EE000F1080C4FF0E0
:1003D000010808FA0CF3B1F800C00CEA03069E42CB
:1003E00021D183004FF00F0C0CFA03F7BC4305FA40
:1003F00003FC4CEA040491F803C0BCF1280F05D1BA
:1004000000F1080C08FA0CF8C2F8148091F803C047
:10041000BCF1480F07D100F1080C4FF0010808FAB1
:100420000CF8C2F81080401C0828CED35460BDE8F8
:10043000F0810AB1016100E04161704710B501220D
:1004400011460248FFF7F5FF10BD0000000801400B
:1004500010B5002201210248FFF7EBFF10BD00009C
:100460000008014010B5012280210248FFF7E1FF9A
:1004700010BD00000008014010B500228021024894
:10048000FFF7D7FF10BD00000008014008B50021AC
:100490004FF0006000F076F825208DF80000002075
:1004A0008DF801008DF8020001208DF803006846E8
:1004B00000F002F808BD0000F0B500210022002382
:1004C00000250F24C678EEB32B4E366806F4E0669E
:1004D000C6F5E0664FEA1621C1F1040524FA01F4DD
:1004E000467806FA05F1867806EA040646EA01012E
:1004F0004FEA011106784FEA86764FEAD66601FA8E
:1005000006F11E4E07784FEAA70756F8272006780F
:100510004FEA86764FEAD6674FF0FF0606FA07F3F2
:1005200022EA030201EA030142EA0102134E0778BC
:100530004FEAA70746F82720067806F01F074FF076
:10054000010600E00BE006FA07F607784FEA6717A6
:100550004FF0E02C0CEB8707C7F800610BE0067842
:1005600006F01F070126BE40054F90F800C04FEA75
:100570006C1C47F82C60F0BD0CED00E000E400E0DE
:1005800080E100E0024A0A400243024B1A607047D1
:1005900080FFFF1F08ED00E010B500BF40F22551BD
:1005A000054800F019FA0128F8D1034800F0BAFA1A
:1005B000C4B2204610BD00000044004010B50446FF
:1005C0002146054800F0B3FA00BF8021024800F040
:1005D00003FA0028F9D010BD0044004010B50D20EA
:1005E000FFF7ECFF0A20FFF7E9FF10BD70B50546E5
:1005F0002846FFF7E5FD461E002403E0285DFFF7CF
:10060000DDFF641CB442F9DB285D0A2802D1FFF744
:10061000E5FF02E0285DFFF7D1FF70BD70B505462C
:100620000E46002403E0285DFFF7C8FF641CB442B7
:10063000F9DB70BD29B1064AD2690243044BDA6185
:1006400004E0034AD2698243014BDA61704700003B
:100650000010024029B1064A92690243044B9A6194
:1006600004E0034A92698243014B9A61704700009B
:100670000010024010B54FF4803000F0D5F800F0C3
:1006800031F90446012C1DD1002000F0C1F8A00270
:1006900000F0F0F8002000F0F9F8E104C81000F0D4
:1006A00007F9012000F0FEF800BF392000F08AF8B9
:1006B0000028FAD0022000F009F900BF00F0A0F8ED
:1006C0000828FBD101210420FFF7C4FF01210820E5
:1006D000FFF7C0FF01218803FFF7BCFF0121480499
:1006E000FFF7A8FF10BD000030B500210022002454
:1006F00000232D4D6D6805F00C0121B1042905D0B2
:10070000082923D105E0294D056022E0284D056028
:100710001FE0254D6D6805F47012022505EB92422D
:10072000214D6D6805F480341CB9224D5543056098
:100730000BE01D4D6D6815F4003F03D01E4D554371
:10074000056002E01A4D5543056002E0174D056053
:1007500000BF00BF144D6D6805F0F0010909174D89
:100760006B5C0568DD4045600F4D6D6805F4E06128
:10077000090A124D6B5C4568DD4085600A4D6D6865
:1007800005F46051C90A0D4D6B5C4568DD40C560DC
:10079000054D6D6805F44041890B094D6B5CC568DA
:1007A000B5FBF3F5056130BD0010024000127A0080
:1007B00000C0A80000093D0000605400A20E00081F
:1007C000B20E000810B501460022002300204A1195
:1007D000012A02D1094C236806E0022A02D1074C03
:1007E000236A01E0054C636A01F01F020124944072
:1007F0001C4201D0012000E0002010BD001002408A
:100800000248406800F00C007047000000100240F1
:1008100001460020034A506820F0F0000843506071
:1008200070470000001002401149096821F480312E
:100830000F4A11601146096821F480211160B0F55A
:10084000803F03D0B0F5802F0ED106E0084909683B
:1008500041F48031064A116007E00549096841F416
:10086000A021034A116000E000BF00BF70470000F4
:100870000010024001460020034A506820F4E06066
:1008800008435060704700000010024001460020FD
:10089000034A506820F4605040EAC100506070473D
:1008A0000010024001490866704700000000424203
:1008B00002460020044B586820F47C1042EA0103F1
:1008C0001843014B58607047001002400146002059
:1008D000034A506820F0030008435060704700004E
:1008E0000010024010B5002400E0641C3120FFF726
:1008F00069FF08B9802CF8D13120FFF763FF08B1F8
:10090000012010BD0020FCE710B51A20FFF756FEAD
:100910000D20FFF753FE10BD10B540F225510848D9
:1009200000F063F820B1064800F0FCF805490870B3
:100930000548007818B10348007800F0E9F910BDC7
:1009400000380140220000202100002021B18289CE
:1009500042F40052828104E082894DF6FF731A400E
:100960008281704700B587B04FF416500190002087
:10097000ADF80800ADF80A00ADF80C00ADF80E00B7
:100980000C20ADF810000020ADF81200ADF81400F6
:100990004FF40070ADF816000020ADF8180001A962
:1009A0000B4800F069F8012240F22551084800F098
:1009B00042F801210648FFF7C9FF01A9054800F0E8
:1009C0005BF801210348FFF7C1FF07B000BD00003D
:1009D00000380140004400400246002013880B42CA
:1009E00001D0012000E00020704770B502460B46A0
:1009F0000024002100250020C3F3421503F01F014D
:100A0000012606FA01F1012D02D19689314006E056
:100A1000022D02D1168A314001E0968A31401C1223
:100A2000012606FA04F41688344011B10CB10120F5
:100A300000E0002070BDF0B503460024002600252C
:100A40000020C1F3421401F01F06012707FA06F542
:100A50001846012C01D10C3004E0022C01D11030D9
:100A600000E014301AB107682F43076002E00768FE
:100A7000AF430760F0BD00002DE9F04385B00646A6
:100A80000D460024A14600BF00BF348A4CF2FF008F
:100A90000440E888E9890843298A0843698A0843A9
:100AA000A98A0843044334820024B4894EF6F31023
:100AB0000440A88829890843A98908430443B481CC
:100AC0000024B48A4FF6FF40044068890443B4828E
:100AD00000BF6846FFF708FE1148864202D1DDF8E4
:100AE0000C9001E0DDF8089009EBC90000EB09105B
:100AF00029688900B0FBF1F76420B7FBF0F004012E
:100B00002009642101FB1078322000EB0810B0FBB3
:100B1000F1F000F00F000443348105B0BDE8F0832C
:100B20000038014001468888C0F308007047C1F3CF
:100B3000080282807047000070B5002627E041203F
:100B4000FFF73CFD5420FFF739FD0D20FFF736FD80
:100B5000002418E040F225510F48FFF73DFF01281F
:100B600007D10D48FFF7DEFF05464F2D01D10120CB
:100B700070BDA4F54340503801D1FFF75FFC0CB9BC
:100B8000FFF766FC641C05488442E3D3761CC82E3C
:100B9000D5D30020ECE7000000440040400D0300E6
:100BA00070B5044600252046FFF70AFBC5B201E0F8
:100BB000002060552800A5F10101CDB2F8D170BD2B
:100BC00010B5094800686421B0FBF1F201FB120482
:100BD000204600F0E3F8642000F008F802480068BE
:100BE000401C0149086010BD1C00002070B504467F
:100BF0000025002600BF0CE0002604E00020FFF7DF
:100C00003EFB701C86B24CF250308642F6DB681C0C
:100C100085B2A542F0DB70BDFFF72CFDFFF73EFB70
:100C2000FFF734FCFFF79EFE00203349086033498C
:100C30000860334908703349087033490870FFF77A
:100C4000FDFBFFF70FFC4FF47A70FFF718FB00BFB6
:100C5000FFF772FF0028FBD001202A490870FFF738
:100C6000F7FBFFF709FC24480068401C2249086094
:100C70002A20264908704720487054208870652033
:100C8000C87073200871742048715F2088716220D9
:100C9000C8716520087267204872692088726E20CA
:100CA000C8722D200873472048734F208873212075
:100CB000C87308741EE01148006864300E49096862
:100CC000884206D8FFF7C4FBFFF7CCFBFFF778FF9D
:100CD00010E00A48006808490968884206D2FFF710
:100CE000ADFBFFF7C9FBFFF76BFF03E0FFF7B0FBBE
:100CF000FFF7C2FBDFE70000180000201C00002007
:100D000020000020210000202200002024000020DC
:100D100010B501461E4A12686423B2FBF3F403FBCC
:100D20001422D0B2C0EB00121A4B03EBC2021A4BD2
:100D30001B78D154C0EB0012164B13F832202A2A2C
:100D400004D1154A1278521C134B1A7026291ED151
:100D5000114A1278052A1ADD0A22C0EB00130D4C45
:100D600004EBC3030C4C24781A550A23C0EB001281
:100D7000084C04EBC204084A1278521EA354002205
:100D8000054B1A70024A1268521C014B1A6010BDC2
:100D900018000020240000202000002010B5044688
:100DA00000BFFFF7C9FE0028FBD06420FFF71EFF3D
:100DB00026A0FFF71BFC0D20FFF700FC00BFFFF78C
:100DC000EBFB4F28FBD10120FFF710FF22A0FFF71C
:100DD0000DFC0D20FFF7F2FB00BFFFF7DDFB4F28F6
:100DE000FBD10120FFF702FF22A0FFF7FFFB0B2141
:100DF0002348FFF713FC21A0FFF7F8FB0D20FFF7B6
:100E0000DDFB0A20FFF7F2FE05211EA0FFF706FC1E
:100E1000C4EB04111D4A02EBC101881CFFF7E6FB7D
:100E20001BA0FFF7E3FBFFF76FFD00BFFFF7B4FB6D
:100E30004F28FBD1C4EB0411144A02EBC100FFF7A9
:100E4000AFFE0120FFF7D2FE10BD000041542B433E
:100E50004D47463D3100000041542B435343413D33
:100E6000222B383631333830303232303530302280
:100E70000000000041542B434D47533D2200000029
:100E80000B0000202A4730333300000024000020EC
:100E90002626000010B5FFF7E5F94FF000010160CC
:100EA00010BD000000000102030401020304060754
:100EB0000809020406080000D80E000800000020FF
:100EC0002400000028010008FC0E00082400002077
:100ED00044310000440100083138323634383436A9
:100EE000383630313539303032303830383400002F
:0C0EF000000000000000000000000000F6
:04000005080000ED02
:00000001FF
