:1008580041542B434D47463D310D0A0041542B432B
:100868005343533D2247534D220D0A0041542B4315
:100878004D47533D00313838343531343637363109
:0E088800004861726D66756C67617365730080
:1008AF00758920758DFD758BFDD28EC29FD29ED21C
:0608BF009CD2ACD2AF2276
:0808FF008F993099FDC2992286
:1008C500120896FF600C1208FF740129F9E43AFA40
:0308D50080EE2290
:0D08D800EFD3940040077E78DEFE1F80F312
:0108E50022F0
:050907007F640208D826
:0308E6001208C530
:0908E900E4FD1209070DBD1EF922
:0108F20022E3
:100800001208AF7BFF7A0879581208E67A087964F3
:100810001208E67A0879741208C57F221208FF7A56
:1008200008797D1208C57F221208FF7F0D1208FF8C
:100830007F0A1208FF1208E97A0879891208C5129E
:1008400008E97F1A1208FF1208E91208E91208E9FC
:080850001208E91208E980AB6F
:030000000208F300
:0C08F300787FE4F6D8FD7581070208004C
:10089600BB010689828A83E0225002E722BBFE0260
:0908A600E32289828A83E4932293
:00000001FF
