:10091A0041540D004F4B0041542B434D47463D3146
:10092A000041542B434D47463D300041542B43531D
:10093A0043413D0041542B434D47533D003E001A6D
:10094A000D00415444313838343531343637363174
:10095A000D0A004154480D0A003138383435313413
:10096A0036373631004861726D66756C676173653A
:10097A0073002B383631333830303739313530302F
:01098A00006C
:100A8300758920758DFD758BFDD28EC29FD29ED246
:060A93009CD2ACD2AF22A0
:070AC1007BFF120AAE7F2249
:080AC8008F993099FDC29922BB
:100AAE00120A6AFF600C120AC8740129F9E43AFAB4
:030ABE0080EE22A5
:0D0AD000EFD3940040077E78DEFE1F80F318
:010ADD0022F6
:050AEA007F64020AD048
:0F0A5100120AAE120A60120A60120A60120A60DC
:090A6000E4FD120AEA0DBD1EF9C5
:010A6900226A
:1009FB0075170AAF171517EF6025E4F5207BFF7A03
:100A0B0009791A120AAED2AC120AEA8B0B12080839
:0F0A1B00E94A6006120A60020A60120A6080D47B
:010A2A0022A9
:0209C6008F623E
:1009C80075630AAF631563EF6028E4F520E5627B81
:1009D800FF60067A09792180047A09792B120AAE18
:1009E800120800E94A6006120A60020A60120A60E8
:0209F80080D1AC
:0109FA0022DA
:06098B008B5E8A5F8960AB
:1009910075610AAF611561EF602AE4F5207A097982
:1009A10035120AC1AB5EAA5FA960120AC37F0D129C
:1009B1000AC8120800E94A6006120A60020A6012B7
:0409C1000A6080CF79
:0109C500220F
:06089A008B538A548955BE
:1008A00075590A755A0A7A09793E120AC1AB53AAD8
:1008B00054A955120AC37F0D120AC8E4F520AF5996
:1008C0001559EF6052120AEA750BFF750C09750D88
:1008D0004712080E8B5B8A5C895DAE02AF01EF4E5A
:1008E00060DCAB56AA57A958120AAEE4F5207BFF8C
:1008F0007A097949120AAEAF5A155AEF60C0120848
:10090000028B5B8A5C895DAE02AF01EF4E60037FB4
:090910000122120A6080E07F0060
:0109190022BB
:10080000D2AC120AEA750BFF750C09750D1E7B0040
:040810007A007921D0
:060814008B088A09890A25
:10081A00AE02AF01EF4E6071E50D450C70028069C2
:10082A0085080E85090F850A10AB0EAA0FA91012AA
:10083A000A6A60558B118A128913850B14850C1567
:10084A00850D16AB11AA12A913120A6AFFAB14AAD4
:10085A0015A916120A6AFEB5071874012516F516A7
:10086A00E43515F51574012513F513E43512F5125F
:10087A0080D1EE7007AB0EAA0FA9102274012510C1
:0F088A00F510E4350FF50F80A07B007A007900A0
:01089900223C
:03002300020A2BA3
:100A2B00C0E0C0D075D018C2AFE520C39432500FD0
:100A3B0030980CC298AF20052074212FF8A699D2BC
:060A4B00AFD0D0D0E03274
:100A9900120A837BFF7A09794C120A517A09795D26
:050AA900120A5180EE6D
:03000000020ADE13
:0C0ADE00787FE4F6D8FD758163020A9968
:100A6A00BB010689828A83E0225002E722BBFE028A
:090A7A00E32289828A83E49322BD
:00000001FF
